:04000000803107281C
:100008008431042C803180310928703084002730F5
:1000180085008030FE000030FF0082313E22FD0165
:100028004001AB01AC01AD01AE0140018231302A83
:10003800A0013A2901005629A001A00A5629A501C4
:10004800A50A25082B3E8600870182316722803168
:1000580081000130F80078084001A5070330250227
:10006800031C25282D08F800F9012C08FA00FB01CB
:100078007A08FB00FA0178087A04F00079087B0412
:10008800F10082310622803171084001A400700815
:10009800A300240882316022803140012308823184
:1000A800602280315629A601A60A26082B3E860022
:1000B800870182316722803181000130F800780899
:1000C8004001A60703302602031C59282D08F80012
:1000D800F9012C08FA00FB017A08FB00FA017808FC
:1000E8007A04A10079087B04A200A7018231672263
:1000F8008031F80040012708703EF900FA012730E6
:10010800FA3D790886007A0887007808810001306E
:10011800F8007808A70702302702031C7A287030F5
:1001280086002730870041310108F800F901703056
:100138008600273087000108FA00FB017A08FB00D7
:10014800FA0178087A04A30079087B04A40022083D
:10015800F1002108F0002408F3002308F20082319E
:100168001C2280314B308231602280315629A8010F
:10017800A80A28082B3E8600870182316722803131
:1001880081000130F80078084001A80703302802F0
:10019800031CBD28A901823167228031F800400183
:1001A8002908703EF900FA012730FA3D79088600DF
:1001B8007A088700780881000130F8007808A907D4
:1001C80080302902031CCF282D08F800F9012C08DB
:1001D800FA00FB017A08FB00FA0178087A04A1000A
:1001E80079087B04A2002208F3002108F20070308D
:1001F800F4002730F5008131592180314B308231AC
:10020800602280315629AA01AA0A2A082B3E8600B4
:10021800870182316722803181000130F800780837
:100228004001AA0703302A02031C09292D08F800F7
:10023800F9012C08FA00FB017A08FB00FA0178089A
:100248007A04A10079087B04A2002208F1002108A1
:10025800F0008131F02180314B30823160228031D1
:1002680056293F3082316022803156292B08F80008
:10027800F9017908003A0319422935297808433ADF
:1002880003195728073A03190729143A0319BB28F1
:10029800023A03192328073A03191E280D3A0319AD
:1002A800202835294001200808007308F100720849
:1002B800F0008131F02181311E131E159E1673083E
:1002C8009B0072089A00F701740886007508870079
:1002D80001089D000130F4070030F53D74088600E0
:1002E8007508870001089C000130F4070030F53DCF
:1002F80082316D2281310130F2070030F33D7308FD
:100308009B0072089A000130F6007608F7073F3024
:100318007702031C68299E127408860075088700F6
:1003280001089D000130F4070030F53D740886008F
:100338007508870001089C0082316D220800123080
:100348007D01CB000D307E01A30082315222813124
:100358008131C12181314B3082316022813182313A
:10036800672281314001AB0080311C208131003A85
:100378000319B3298231592208001F1442011F1C96
:10038800C7296400C22919081B080319D1291B08A9
:10039800FF3EF00070089B0008001C08FF3EF000BC
:1003A80070089C00FF309B000800F10151010E0805
:1003B800FD0013084001AE0051010E0E0739063A40
:1003C8000319EA296030F0007008F1040E0871087A
:1003D8008D00063093000800803071020030031948
:1003E8007002031CFA2950011E17FC2950011E1324
:1003F8001E151E1671089B0070089A0082316D2226
:100408001E11080080307102003003197002031CAD
:10041800102A50011E17122A50011E1371089B0042
:1004280070089A001E141D08F1001C08F00008004E
:1004380050011E171E15F0307106031D262A703054
:100448009B00272A9B0170089A0073089D00720878
:100458009C0082316D2208000E1D3A2A8131D92173
:1004680082318131A321823182314A228431002CA8
:1004780082313D2A6400800101310130FE020030E2
:10048800FF3B7F087E04031900343F2A7D08510191
:100498008D0040012E0851019300080042019D176C
:1004A8001D169E169F151E15080042019F019D01ED
:1004B8009E019B019C010800F00042019E1C612ADC
:1004C80070089A0008004E018F1E672A4201190819
:0E04D800080055309F00AA309F009E140800B7
:00000001FF
